:100000000C94CF010C9400020C9400020C9400029A
:100010000C9400020C9400020C9400020C94000258
:100020000C9400020C9400020C9400020C94000248
:100030000C9400020C9400020C9400020C94000238
:100040000C9400020C9400020C9400020C94000228
:100050000C9400020C9400020C9400020C945503C2
:100060000C9400020C941D040C94F3030C940002F5
:100070000C9400020C9400020C9400020C940002F8
:100080000C9400020C9400020C9400020C940002E8
:100090000C9400020C9400020C9400020C94FE05D7
:1000A0000C9400020C9400020C9400020C940002C8
:1000B0000C9400020C9400020C9400020C940002B8
:1000C0000C9400020C9400020C9400020C94C903DE
:1000D0000C949F030C9400020C9400020C940002F8
:1000E0000C9400025C096E09710978097F09AD0959
:1000F000B409C109CE09DA09DA09DA09DA09DA0933
:10010000DA09DA09DA09DA09DA09DA09DA09DA09D7
:10011000DA09DA09DA09DA09DA09DA09DA09DA09C7
:10012000DA09DA095C0969096E09710978097F0938
:1001300086099309A009220F250F140F180F1C0F11
:100140005C0F290F2D0F330F370F3B0F410F450F5A
:10015000490F5C0F4F0F530F570F07634236B79B82
:10016000D8A71A39685618AEBAAB558C1D3CB7CC17
:100170005763BD6DEDFD753EF6177231BF0000008F
:10018000803F08000000BE922449123EABAAAA2A72
:10019000BECDCCCC4C3E00000080BEABAAAAAA3E8D
:1001A00000000000BF000000803F000000000008C9
:1001B0004178D3BB4387D1133D190E3CC3BD428266
:1001C000AD2B3E68EC8276BED98FE1A93E4C80EF24
:1001D000FFBE01C4FF7F3F00000000000C94290F08
:1001E0000C9402020C94A9020C945C090C94490F23
:1001F0000C941C0F0C945A020C94410F0C9489041B
:100200000C94CE090C94250F0C942D0F0C949D0486
:100210000C9479040C9446020C94450F0C947809C4
:100220000C947F090C9468020C94140F0C944F0FDB
:100230000C94DA090C9471090C9469090C949309D3
:100240000C9409140C943B0F0C94AD090C94F0021F
:100250000C946E090C94C1090C94330F0C94370F55
:100260000C94A0090C94A5040C94180F0C94530F33
:100270000C9486090C94D5040C94570F0C94220FFF
:100280000C945C0F0C94B4090C947A044E6F2047C4
:10029000505320646174612072656365697665649A
:1002A0003A20636865636B20776972696E67000046
:1002B000002200250028002B002E0031003400020F
:1002C000010000050108010B0105050505070508EA
:1002D000080808020202020A0A08080404040401C9
:1002E00001010101010101030303030303030304EB
:1002F0000707070C0C0C0C0C0C0C0C02020202067B
:10030000060606060606060B0B0B0B0B0B0B0B016A
:100310000210202008081020401020408002010216
:1003200001080402010102040810204080804020DE
:100330001008040201800402018040201008040219
:100340000108040201010204081020408001020497
:10035000081020408000000A0B02090C0D0E08074F
:100360000304010000000000000000000000000085
:10037000000000000000000000000000000000007D
:10038000001211100000000000000000000000003A
:10039000000000000000000000000000091411240B
:1003A0001FBECFEFD1E2DEBFCDBF00E00CBF13E038
:1003B000A0E0B2E0E8ECF3E300E00BBF02C007907E
:1003C0000D92A439B107D9F726E0A4E9B3E001C042
:1003D0001D92AD39B207E1F711E0CFECD1E000E0BA
:1003E00006C021970109802FFE010E949419CE3C7E
:1003F000D10780E00807A9F70E94E50F0C94E219E5
:100400000C940000CF92DF92EF92FF920F931F9314
:10041000CF93DF936C017A018B01C0E0D0E0CE1561
:10042000DF0589F0D8016D918D01D601ED91FC9128
:100430000190F081E02DC6011995892B11F47E0100
:1004400002C02196ECCFC701DF91CF911F910F9190
:10045000FF90EF90DF90CF900895FC01A089B189C3
:100460008C91A689B78982FD0FC09C91818D8F5F89
:100470008F73228D821749F0218DDF01A20FB11DEC
:100480005D969C93818F08958C910895FC01918DC8
:10049000828D981761F0828DDF01A80FB11D5D96E6
:1004A0008C91928D9F5F9F73928F90E008958FEF54
:1004B0009FEF0895FC01918D828D981731F0828D08
:1004C000E80FF11D858D90E008958FEF9FEF08955F
:1004D000FC01918D228D892F90E0805C9F4F821BC3
:1004E00091098F739927089584E894E00E94680227
:1004F00021E0892B09F420E0822F089581E295E024
:100500000E94680221E0892B09F420E0822F0895DF
:10051000FC01848DDF01A80FB11DA35ABF4F2C91A0
:10052000848D90E001968F739927848FA689B7896F
:100530002C93A089B1898C9180648C93938D848D48
:10054000981306C00288F389E02D80818F7D808317
:100550000895EF92FF920F931F93CF93DF93EC01D7
:1005600081E0888F9B8D8C8D981305C0E889F9896F
:10057000808185FD24C0F62E0B8D10E00F5F1F4F8C
:100580000F731127E02E8C8DE8120CC00FB607FCFC
:10059000FACFE889F989808185FFF5CFCE010E94E5
:1005A0008802F1CF8B8DFE01E80FF11DE35AFF4F5A
:1005B000F0820B8FEA89FB898081806207C0EE8917
:1005C000FF896083E889F98980818064808381E084
:1005D00090E0DF91CF911F910F91FF90EF900895E0
:1005E000CF93DF93EC01888D8823C9F0EA89FB89DA
:1005F000808185FD05C0A889B9898C9186FD0FC0D1
:100600000FB607FCF5CF808185FFF2CFA889B989A5
:100610008C9185FFEDCFCE010E948802E7CFDF915C
:10062000CF91089580E090E0892B21F00E947E0216
:10063000811121C080E090E0892B41F080E090E0C2
:10064000892B21F00E940000811118C080E090E009
:10065000892B21F00E947402811113C080E090E088
:10066000892BA1F080E090E0892B81F00E940000AE
:1006700081110AC008950E940000DCCF0E94000092
:10068000E5CF0E940000EACF0C94000008950E947C
:10069000BE192FB7F8946091C8037091C903809177
:1006A000CA039091CB032FBF08951F920F920FB6EC
:1006B0000F9211242F933F938F939F93AF93BF93E8
:1006C0008091C8039091C903A091CA03B091CB0354
:1006D0003091C70323E0230F2D3720F40196A11D8D
:1006E000B11D05C026E8230F0296A11DB11D209360
:1006F000C7038093C8039093C903A093CA03B09320
:10070000CB038091130490911404A0911504B0912F
:1007100016040196A11DB11D809313049093140437
:10072000A0931504B0931604BF91AF919F918F9140
:100730003F912F910F900FBE0F901F9018951F9211
:100740000F920FB60F9211240BB60F922F933F9377
:100750004F935F936F937F938F939F93AF93BF93C9
:10076000EF93FF9384E894E00E948802FF91EF9159
:10077000BF91AF919F918F917F916F915F914F91B9
:100780003F912F910F900BBE0F900FBE0F901F90B7
:1007900018951F920F920FB60F9211240BB60F925D
:1007A0002F933F934F935F936F937F938F939F9379
:1007B000AF93BF93EF93FF9384E894E00E942D02E0
:1007C000FF91EF91BF91AF919F918F917F916F9129
:1007D0005F914F913F912F910F900BBE0F900FBEE5
:1007E0000F901F9018951F920F920FB60F92112421
:1007F0000BB60F922F933F934F935F936F937F931B
:100800008F939F93AF93BF93EF93FF9381E295E014
:100810000E948802FF91EF91BF91AF919F918F91BC
:100820007F916F915F914F913F912F910F900BBEF0
:100830000F900FBE0F901F9018951F920F920FB63A
:100840000F9211240BB60F922F933F934F935F9308
:100850006F937F938F939F93AF93BF93EF93FF9388
:1008600081E295E00E942D02FF91EF91BF91AF913F
:100870009F918F917F916F915F914F913F912F91B8
:100880000F900BBE0F900FBE0F901F90189585ED27
:100890008093BC008091BC0084FDFCCF10925F046B
:1008A00008954091EE03262F30E0240F311D2132B0
:1008B0003105DCF420915F042430C9F4FC0180E0B0
:1008C00090E0861758F43091EE032191DC01A45397
:1008D000BC4FA30FB11D2C930196F3CF8091EE0373
:1008E000680F6093EE0380E0089581E0089582E050
:1008F00008950895E091180480911704E81730F4E2
:10090000F0E0E75EFB4F808190E008958FEF9FEF6E
:1009100008959091180480911704981750F4E92FC6
:10092000F0E0E75EFB4F208130E09F5F909318047A
:1009300002C02FEF3FEFC90108958091170490E0A6
:1009400020911804821B91090895CF92DF92EF92B3
:10095000FF920F931F93CF93DF937C01262F972F46
:100960008A0180916004882391F0C62FD72F6E01F1
:10097000C40ED51ECC15DD0571F06991D701ED913E
:10098000FC910190F081E02DC7011995F3CF642F00
:10099000822F0E945104C801DF91CF911F910F91C6
:1009A000FF90EF90DF90CF900895CF93DF931F9249
:1009B000CDB7DEB76983209160042223D1F0209166
:1009C0008304203240F021E030E0FC0133832283B5
:1009D00080E090E015C080916104E82FF0E0EE59CE
:1009E000FB4F998190838F5F809361048093830490
:1009F00005C061E0CE0101960E94510481E090E0C3
:100A00000F90DF91CF910895CF93DF93EC018A850A
:100A10009B85AC85BD858E839F83A887B9870E94FF
:100A200049036A837B838C839D8381E089838883E8
:100A3000DF91CF9108952F923F924F925F926F92E4
:100A40007F928F929F92AF92BF92CF92DF92EF925E
:100A5000FF920F931F93CF93DF93D82FC92F8B0152
:100A60000E94111524E630E040E050E00E94721927
:100A700049015A019B01AC0160E876E988E990E000
:100A80000E9462196B017C01F80191828082ED2F36
:100A9000FC2F2191822F022E000C990BC0970A97F0
:100AA000C0F32E3239F51F0180E8882E86E9982E92
:100AB00088E9A82EB12C9AE0492E512C612C712C7A
:100AC000F101C1911F010C2E000CDD0BE097CA3023
:100AD000D10580F4C501B401A30192010E947219ED
:100AE00049015A01DE010E94A719C60ED71EE81E51
:100AF000F91EE6CFA5E0B0E0A70196010E949C197F
:100B00006F5F7F4F8F4F9F4F23E030E040E050E01A
:100B10000E947219F801228333834483558316821D
:100B2000DF91CF911F910F91FF90EF90DF90CF90C9
:100B3000BF90AF909F908F907F906F905F904F90FD
:100B40003F902F900895FF920F931F93CF93DF93C1
:100B5000EC01FF24F39488818D3211F0F12C01C057
:100B60002196CE010E9411159B01AC01A4E6B0E0D4
:100B70000E949C19FE014991242F042E000C330B76
:100B8000205331092A303105A8F34E3241F5218135
:100B9000022E000C330B205331092A303105F8F4B2
:100BA0004AE0429F8001439F100D1124012E000C4A
:100BB000220B330B600F711F821F931F0281002EC7
:100BC000000C110B005311090A30110540F4012EDD
:100BD000000C220B330B600F711F821F931FFF202D
:100BE00039F090958095709561957F4F8F4F9F4F0D
:100BF000DF91CF911F910F91FF9008951F920F9257
:100C00000FB60F9211240BB60F922F933F934F9371
:100C10005F936F937F938F939F93AF93BF93EF9364
:100C2000FF938091B900887F803609F49CC068F5F5
:100C3000883209F45BC090F4803109F454C038F470
:100C4000882309F4F6C0883009F44DC0F6C0883115
:100C500009F44CC0803209F45DC0EFC0803409F45F
:100C600068C048F4803309F455C0883309F0E5C002
:100C700080935D04D8C0803509F44FC0883509F4ED
:100C80005DC0883409F0D9C0D6C0883909F4C7C01E
:100C9000A8F4883709F467C038F4883609F463C0CB
:100CA000803709F460C0C9C0883809F4B8C08039F9
:100CB00009F45FC0803809F0C0C05BC0803B09F414
:100CC00086C038F4803A09F466C0883A09F47FC0D7
:100CD000B4C0803C09F4A7C0883C09F4A4C0883B98
:100CE00009F48AC0AAC080913A0410C090915C04B3
:100CF00080915B04981770F5E0915C0481E08E0FA1
:100D000080935C04F0E0E55CFB4F80818093BB0046
:100D100085EC86C080935D048EC0E0915C0481E028
:100D20008E0F80935C048091BB00F0E0E55CFB4F8C
:100D3000808390915C0480915B046EC0E0915C04C0
:100D400081E08E0F80935C048091BB00F0E0E55C55
:100D5000FB4F808380915E0481116DC081E08093A0
:100D6000390484EA61C083E080935F041092120426
:100D7000CFCF80911204803208F051C0E09112046C
:100D800081E08E0F809312048091BB00F0E0EE5062
:100D9000FC4F8083BDCF85EC8093BC0010925F0434
:100DA00080911204803230F4E0911204F0E0EE50B1
:100DB000FC4F10826091120470E0E091F003F0911A
:100DC000F10382EF93E019951092120436C084E08B
:100DD00080935F041092EF031092EE03E091EC0316
:100DE000F091ED0319958091EE03811105C081E02A
:100DF0008093EE031092CC03E091EF0381E08E0F1D
:100E00008093EF03F0E0E453FC4F80818093BB00BC
:100E10009091EF038091EE03981708F479CF85E85D
:100E20008093BC000AC085EC8093BC0010925F04E4
:100E300004C010925D040E944704FF91EF91BF919E
:100E4000AF919F918F917F916F915F914F913F9162
:100E50002F910F900BBE0F900FBE0F901F90189503
:100E60004F925F926F927F928F929F92AF92BF92BA
:100E7000CF92DF92EF92FF920F931F93CF93DF9366
:100E80002B013C010E9449034B015C0182E0C82E0A
:100E9000D1E097E0D92E84E894E00E946802892B83
:100EA00009F4EEC284E894E00E944602C82F8091C3
:100EB000670690916806A0916906B0916A0601964E
:100EC000A11DB11D8093670690936806A0936906E3
:100ED000B0936A06C43209F4B2C2E0916106C53229
:100EE00034F4CA3071F0CD3009F0B6C20AC0CA324B
:100EF00041F0CC3209F0B0C280914E068C2780932D
:100F00004E06EF3008F08DC2F0E0E05BF94F108242
:100F100080914F06882309F46BC1209150063FEB66
:100F2000320F822F022E000C990B363010F4C79727
:100F300007C02156263018F48755910901C0C09783
:100F4000282F2295207F309151064FEB430F832F9E
:100F5000032E000C990B463010F4C79707C031568A
:100F6000363018F48755910901C0C097820F9091CF
:100F70004E06891329C18091730690917406A09141
:100F80007506B09176060196A11DB11D809373067A
:100F900090937406A0937506B093760680916206CE
:100FA000882399F080916B0690916C06A0916D0654
:100FB000B0916E060196A11DB11D80936B069093B2
:100FC0006C06A0936D06B0936E0610915F06112318
:100FD00009F46BC0113009F0D0C08091F2059091F6
:100FE000F305A091F405B091F5058093EE0590937B
:100FF000EF05A093F005B093F1050E9449036093BB
:10100000F6057093F7058093F8059093F905109312
:10101000ED051093EC058091000690910106A091DA
:101020000206B09103068093FC059093FD05A09302
:10103000FE05B093FF050E94490360930406709378
:10104000050680930606909307061093FB05109300
:10105000FA0580916206882309F48FC0EAEDF5E075
:10106000ACECB5E08D2D01900D928A95E1F7E1EEA3
:10107000F5E0A3EDB5E08D2D01900D928A95E1F795
:101080000E9449036093E8057093E9058093EA059F
:101090009093EB051093CB051093CA0588E096E07A
:1010A0000E94040586E196E066C08091000690915A
:1010B0000106A0910206B09103068093FC0590936F
:1010C000FD05A093FE05B093FF050E9449036093C0
:1010D0000406709305068093060690930706D09346
:1010E000FB05D093FA0580916206882321F1EAED91
:1010F000F5E0ACECB5E08D2D01900D928A95E1F70D
:10110000E1EEF5E0A3EDB5E08D2D01900D928A950D
:10111000E1F70E9449036093E8057093E905809325
:10112000EA059093EB05D093CB05D093CA0584E2F2
:1011300096E00E94040580913C0690913D06A091A6
:101140003E06B0913F068093380690933906A093EF
:101150003A06B0933B060E944903609334067093AD
:1011600035068093360690933706D0933306D09396
:10117000320680E496E00E94040500916506109115
:1011800066060115110509F44CC1E0916506F09160
:10119000660666A177A1F80186A197A10E94C319EE
:1011A000892B09F03EC1B801C80140960E94CC19B4
:1011B0000E944903F80160A371A382A393A3D5A35E
:1011C000D4A302A513A5DDCF80916F069091700680
:1011D000A0917106B09172060196A11DB11D809378
:1011E0006F0690937006A0937106B093720619C1B2
:1011F00080916006811146C061ED72E080E596E065
:101200000E94C319892B41F067ED72E080E596E0FA
:101210000E94C319892B19F4D0935F0615C06DED98
:1012200072E080E596E00E94C319892B41F063EEDD
:1012300072E080E596E00E94C319892B19F41092A0
:101240005F0602C0C0925F068091630690916406BB
:101250009093660680936506009165061091660678
:101260000115110509F4DDC0F801E6A0F7A060E55D
:1012700076E0C7010E94C31997FFC7C0F80182A595
:1012800093A5E6CFE0915F06E23009F493C0909118
:101290005006992309F48EC020E2E29FF001112448
:1012A000E82B3197E932F10508F084C08827EE5821
:1012B000FF4F8F4F0C94941980E596E00E94A30590
:1012C00060930006709301068093020690930306D4
:1012D00071C081E0913409F043C043C06AED75E00C
:1012E00009C081E0933509F080E08093E00562C099
:1012F00061EE75E080E596E00E941B055BC081E031
:10130000973509F080E08093E70554C080E596E0CA
:101310000E94A3056093120670931306809314062F
:101320009093150647C080E596E00E94A305609360
:1013300020067093210680932206909323063AC0DC
:1013400080E596E00E9411156093F2057093F30515
:101350008093F4059093F5052DC081E091330CF452
:1013600080E08093620626C080E596E00E94111519
:1013700060933C0670933D0680933E0690933F0633
:1013800019C080E596E00E94A30560934A06709319
:101390004B0680934C0690934D060CC080E596E07A
:1013A0000E94A30560932E0670932F06809330064B
:1013B000909331060091650610916606011511059E
:1013C00081F1E0916506F091660666A177A1F801CA
:1013D00086A197A10E94C319892B19F5F80120A5B0
:1013E00031A58091600690E082179307D4F028170A
:1013F000390739F440E150E060E576E0C8010E9429
:10140000D319F80102A513A5D9CF60E576E0C7018D
:101410000E94C3191816190624F410926606109239
:101420006506809160068F5F80936006109261066A
:1014300081E0CA3209F080E080934F062CCD1092F3
:1014400061061092600610924E06C0925F061092DE
:101450004F06109262061FCDEE3040F481E08E0FF1
:1014600080936106F0E0E05BF94FC08380914F0606
:10147000811111CD80914E06C827C0934E060BCD29
:101480000E944903DC01CB0188199909AA09BB090B
:1014900084159505A605B70508F4FDCCDF91CF911D
:1014A0001F910F91FF90EF90DF90CF90BF90AF9082
:1014B0009F908F907F906F905F904F9008954F9284
:1014C0005F926F927F928F929F92AF92BF92CF92D4
:1014D000DF92EF92FF920F931F93CF93DF93CDB7DD
:1014E000DEB764970FB6F894DEBF0FBECDBF88E5B8
:1014F0000E94040E811184E180939403882309F4EF
:1015000005C1682F880F770B880B990B0E94AB0FD2
:10151000CE010D960E941B0E80939403882309F43C
:10152000F2C088E40E94040E811184E18093940348
:10153000882309F4E5C0682F880F770B880B990B77
:101540000E94AB0F19821A821B821C8263E0CE01BB
:1015500001960E946F0D882309F4C6C0C0909306BF
:10156000D0909406E0909506F090960660917D06E6
:1015700070917E0680E090E00E946716A7019601B8
:101580000E941E1720E030E040E05CE30E941E173E
:1015900020918B0630918C0640918D0650918E06DD
:1015A0000E944E15698B7A8B8B8B9C8B60917B068E
:1015B00070917C0680E090E00E946716A70196017A
:1015C0000E941E1720E030E040E85BE30E941E17F7
:1015D00020918F063091900640919106509192068D
:1015E0000E944E152B013C0120E030E04AEF54E40C
:1015F0006D857E858F8598890E944D159B01AC0174
:101600000E941E176B017C0189819A81AB81BC818C
:10161000BC01552744278D819E81AF81B885BA2FA3
:10162000A92F982F8827842B952BA62BB72B49857C
:101630005A856B857C858C019D01042B152B262BEF
:10164000372BC901B8010E9467164B015C0120E0ED
:1016500030E040E85EE3C701B6010E941E1720E0BB
:1016600030E040EA50E40E941E179B01AC01C30128
:10167000B2010E944D159B01AC01C501B4010E944D
:101680001E1720E030E040E055E30E941E174B019A
:101690005C0120E030E040E05FE3C701B6010E945A
:1016A0001E1720E030E040EA50E40E941E179B0124
:1016B000AC0169897A898B899C890E944D159B01AF
:1016C000AC01C501B4010E944D1520E030E040E0BE
:1016D00058E30E941E1720E030E048EC52E40E94DC
:1016E000BF156B017C0181E080939403882329F06E
:1016F0005C2D4D2D3E2D2F2D0DC089EE92E008C0A2
:1017000080E193E005C085E393E002C08FE593E0BC
:101710000E94040D652F742F832F922F64960FB6AD
:10172000F894DEBF0FBECDBFDF91CF911F910F9117
:10173000FF90EF90DF90CF90BF90AF909F908F90F1
:101740007F906F905F904F9008953FB7F89480918D
:10175000130490911404A0911504B091160426B5B9
:10176000A89B05C02F3F19F00196A11DB11D3FBFD9
:10177000BA2FA92F982F8827820F911DA11DB11D67
:10178000BC01CD0142E0660F771F881F991F4A9563
:10179000D1F70895009769F0FC0101900020E9F766
:1017A0003197AF01481B590BBC0181E295E00C94C5
:1017B000020280E090E008950C94CA0BE0912105AC
:1017C000F09122050190F081E02D682F81E295E0F3
:1017D00019948F929F92AF92BF920F931F93CF93C2
:1017E000DF93CDB7DEB7A1970FB6F894DEBF0FBE7B
:1017F000CDBF19A2423008F44AE08E010F5D1F4FA1
:10180000842E912CA12CB12CA50194010E94721957
:10181000E62FB901CA0101501109EA3014F4E05D64
:1018200001C0E95CD801EC93232B242B252B61F715
:10183000C8010E94CA0BA1960FB6F894DEBF0FBE76
:10184000CDBFDF91CF911F910F91BF90AF909F902F
:101850008F9008954F925F926F927F928F929F9296
:10186000AF92BF92CF92DF92EF92FF926B017C0119
:10187000B42E9B01AC010E942118882319F087E83F
:1018800093E027C026013701E89477F82FEF3FEF68
:101890004FE75FE7C301B2010E94211881110DC01B
:1018A0002FEF3FEF4FE75FE7C301B2010E94BA1588
:1018B00018161CF48BE893E00CC02FEF3FEF4FE7B6
:1018C0005FE4C701B6010E941917181684F48FE867
:1018D00093E0FF90EF90DF90CF90BF90AF909F90FC
:1018E0008F907F906F905F904F900C94CA0B2FEF6A
:1018F0003FEF4FE75FECC701B6010E94BA1587FDC5
:10190000E6CF20E030E0A901C701B6010E94BA1578
:1019100087FF09C08DE20E94DE0B4C01F7FAF094BC
:10192000F7F8F09402C0812C912CA12C60E070E0BB
:1019300080E09FE3AB1441F020E030E040E251E46E
:101940000E94BF15A394F6CF9B01AC01C701B6015D
:101950000E944E152B013C010E9438166B017C0140
:101960000E9467169B01AC01C301B2010E944D1594
:101970002B013C014AE0C701B6010E94E90B7C0142
:10198000E80CF91CBB2029F08EE20E94DE0BE80E69
:10199000F91EDB2CDD2021F120E030E040E251E4B3
:1019A000C301B2010E941E172B013C010E94381690
:1019B0004B01A12CB12C4AE0C501B4010E94E90BF6
:1019C000E80EF91EC501B4010E9467169B01AC0127
:1019D000C301B2010E944D152B013C01DA94DACF0C
:1019E000C701FF90EF90DF90CF90BF90AF909F9096
:1019F0008F907F906F905F904F9008954AE060E0E5
:101A000070E0CB010C94E90BCF93DF930E94CA0BDB
:101A1000EC0188EB92E00E94CA0B8C0F9D1FDF91B6
:101A2000CF910895382F2091830490918204213220
:101A300008F049C080915F048111FCCF42E04093DF
:101A40005F0430935E043FEF30935D0410925C04BA
:101A500020935B04A2E6B4E04BE354E0FA013E2F8E
:101A6000341B321718F43D913193F9CF10923A0498
:101A700020913A04990F922B90933A049091390453
:101A8000913061F41092390490913A049093BB0024
:101A90009091BC0093FDF8CF95EC01C095EE90932A
:101AA000BC0090915F049230E1F390915D049F3F00
:101AB00079F080915D04803241F080915D04803343
:101AC00031F084E005C081E003C082E001C083E022
:101AD0001092610410928304109260040895CF92D2
:101AE000DF92FF920F931F93CF93DF938C01C62F4A
:101AF00081E08093600487E7809382041092610400
:101B000010928304F80160818EEB95E00E94D50469
:101B100081E00E94120D81116EC0CC2E0C2E000CA3
:101B2000DD0880915F048111FCCF6C2FC13208F079
:101B300060E281E080935F0480935E049FEF909366
:101B40005D0410925C04960F90935B0480933A04BA
:101B500080913A048E6E80933A04809139048130EA
:101B600061F41092390480913A048093BB00809113
:101B7000BC0083FDF8CF85EC01C085EE8093BC00EE
:101B800080915F048130E1F380915C04861710F44A
:101B900060915C04ABE3B4E029E134E0F9018E2FFD
:101BA000821B861718F48D918193F9CF1092180437
:101BB0006093170470E06C157D05E9F7F12C2F2D6B
:101BC00030E02C153D05ACF4220F331F220F331FDC
:101BD000E801C20FD31F8EEB95E00E948904092E05
:101BE000000CAA0BBB0B88839983AA83BB83F39455
:101BF000E6CF81E001C080E0DF91CF911F910F918E
:101C0000FF90DF90CF90089591E09093600497E764
:101C1000909382041092610410928304682F8EEBDB
:101C200095E00E94D50481E00E94120D91E081119F
:101C300090E0892F0895CF92DF92EF92FF920F9359
:101C40001F93CF93DF93CDB7DEB72C970FB6F894E1
:101C5000DEBF0FBECDBF8C0119821A821B821C828F
:101C600063E0CE0101960E946F0D882309F476C0CF
:101C700049815A816B817C81BA01552744278D8126
:101C80009E81AF81B885BA2FA92F982F8827482B1E
:101C9000592B6A2B7B2B89859A85AB85BC856A017C
:101CA0007B01C82AD92AEA2AFB2AC701B6010E9469
:101CB00067162091830630918406409185065091E5
:101CC00086060E944D156093930670939406809348
:101CD000950690939606209187063091880640914C
:101CE000890650918A060E941E1720E030E04AEFD4
:101CF00054E40E944E1520E030E048EC52E40E948B
:101D0000BF156B017C01F80160837183828393832B
:101D100020E030E040EA51E40E94BA1587FF1DC080
:101D20006091930670919406809195069091960625
:101D30009B01AC010E941E1720E030E040E050E320
:101D40000E941E179B01AC01C701B6010E944D15F0
:101D5000F801608371838283938381E02C960FB6B0
:101D6000F894DEBF0FBECDBFDF91CF911F910F91D1
:101D7000FF90EF90DF90CF9008950F931F93CF9334
:101D8000DF93CDB7DEB728970FB6F894DEBF0FBE4E
:101D9000CDBF8B01082E000C990BAA0BBB0B8983BE
:101DA0009A83AB83BC8362E0CE0101960E946F0DE3
:101DB000882361F020E030E039818D819E81822B83
:101DC000932BF8019183808381E003C0F801118295
:101DD000108228960FB6F894DEBF0FBECDBFDF91FC
:101DE000CF911F910F91089590E0FC01EB5AFC4FA9
:101DF0004491FC01E15FFC4F2491FC01E753FD4F4E
:101E00009491992309F466C0442309F455C050E025
:101E1000FA013197E231F10508F04EC08827E55606
:101E2000FF4F8F4F0C949419809180008F7707C0DB
:101E3000809180008F7D03C080918000877F809398
:101E400080003AC084B58F7702C084B58F7D84BD91
:101E500033C08091B0008F7703C08091B0008F7D38
:101E60008093B00029C0809190008F7707C0809147
:101E700090008F7D03C080919000877F80939000B9
:101E80001BC08091A0008F7707C08091A0008F7D3C
:101E900003C08091A000877F8093A0000DC0809137
:101EA00020018F7707C0809120018F7D03C0809132
:101EB0002001877F80932001E92FF0E0EE0FFF1FC4
:101EC000E155FD4FA591B4918FB7F894EC912E2B6D
:101ED0002C938FBF0895CF93DF9341110DC0E9017B
:101EE000C230D1052CF08AE20E94DE0B2197F8CF98
:101EF00080E20E94DE0B03C046E00E942A0C60E0F4
:101F000070E0CB01DF91CF910C943007863308F05D
:101F1000865390917B00282F2870977F922B909367
:101F20007B0087702091000290E4299F900111248A
:101F3000822B80937C0080917A00806480937A0069
:101F400080917A0086FDFCCF809178002091790005
:101F500090E0922B08958F929F92AF92BF92CF9272
:101F6000DF92EF92FF926B017C010E94A50B4B0167
:101F70005C01C114D104E104F104F1F00E94A50B4D
:101F8000DC01CB0188199909AA09BB09883E934055
:101F9000A105B10570F321E0C21AD108E108F108EA
:101FA00088EE880E83E0981EA11CB11CC114D104D8
:101FB000E104F10419F7DDCFFF90EF90DF90CF90AF
:101FC000BF90AF909F908F900895789484B5826071
:101FD00084BD84B5816084BD85B5826085BD85B5CD
:101FE000816085BD80916E00816080936E0010924B
:101FF00081008091810082608093810080918100C6
:102000008160809381008091800081608093800056
:102010008091B10084608093B1008091B0008160B4
:102020008093B000809191008260809391008091B4
:1020300091008160809391008091900081608093F5
:1020400090008091A10082608093A1008091A10006
:1020500081608093A1008091A00081608093A000A6
:102060008091210182608093210180912101816012
:1020700080932101809120018160809320018091D3
:102080007A00846080937A0080917A0082608093E5
:102090007A0080917A00816080937A0080917A0042
:1020A000806880937A001092C10064E670E080E05E
:1020B00090E00E94AB0FE0913105F091320522E0F3
:1020C0002083E0912D05F0912E051082E0912F05DF
:1020D000F091300580E1808310923905E09135055B
:1020E000F091360596E09083E0913305F091340548
:1020F000808180618083E0913305F0913405808197
:1021000088608083E0913305F09134058081806898
:102110008083E0913305F091340580818F7D808349
:10212000E0919404F09195042083E0919004F09163
:1021300091041082E0919204F09193048FEC8083DB
:1021400010929C04E0919804F09199049083E0919E
:102150009604F0919704808180618083E0919604D9
:10216000F0919704808188608083E0919604F091DB
:102170009704808180688083E0919604F0919704B1
:1021800080818F7D808381E292E00E94040D109215
:102190001804109217041092610410928304109294
:1021A0005F04C1E0C0935E041092390484E10E9490
:1021B000F40E85E10E94F40E8091B9008E7F809329
:1021C000B9008091B9008D7F8093B90088E4809335
:1021D000B80085E48093BC00C093600487E78093D7
:1021E000820410926104109283046EE18EEB95E0FC
:1021F0000E94D50481E00E94120D64E170E080E04D
:1022000090E00E94AB0F81E00E94120D81110EC080
:1022100067E776E082EA0E94BD0E882339F069E71D
:1022200076E084EA0E94BD0E811105C089E892E043
:102230000E94040DFFCF6BE776E086EA0E94BD0E98
:102240008823A1F36DE776E088EA0E94BD0E88231B
:1022500069F36FE776E08AEA0E94BD0E882331F3C6
:1022600061E876E08CEA0E94BD0E8823F9F2609165
:102270007F067091800680E090E00E94671620E063
:1022800030E040E853E40E941E1760938306709389
:1022900084068093850690938606609181067091EE
:1022A000820680E090E00E94671620E030E040E087
:1022B00054E30E941E1760938706709388068093EC
:1022C000890690938A066091790670917A0680E07B
:1022D00090E00E94671620E030E040E857E40E945A
:1022E0001E1760938B0670938C0680938D069093D7
:1022F0008E06609177067091780680E090E00E94EB
:10230000671620E030E040E057E40E941E1760931B
:102310008F067093900680939106909392068AE3BD
:1023200092E00E94040D0E945F0A609399037093EB
:102330009A0380939B0390939C03C093000285E4CF
:102340000E94860FBC01990F880B990B0E94691699
:1023500025E732E04AE95BE30E941E176093B10370
:102360007093B2038093B3039093B4038EE492E02E
:102370000E94040D82E692E00E94040D86E792E03E
:102380000E94040DC1E081E295E00E9468021816E7
:1023900019067CF481E295E00E944602803339F010
:1023A000813339F4C093C5031092C60302C0C093B1
:1023B000C6038091C503882309F4C7C18CEA92E063
:1023C0000E94DC0B0E945F0A6093A1037093A2033A
:1023D0008093A3039093A4032091990330919A03CF
:1023E00040919B0350919C030E94BF152EEA3CED47
:1023F00042E45EE30E948B179B01AC0160E070E059
:1024000080E89FE30E944D1520E03AE24DE257E458
:102410000E941E1760939503709396038093970311
:102420009093980342E00E942A0C8EEA92E00E9468
:10243000DC0B88E50E94040E811184E180939403F3
:102440008823D1F0682F880F770B880B990B0E9497
:10245000AB0F8DE993E00E941B0E809394038823B9
:1024600059F060919D0370919E0380919F0390911C
:10247000A00342E00E942A0C8EEA92E00E94DC0B4C
:102480004AE060E070E0CB010E94E90B8EEA92E046
:102490000E94DC0B6091A1037091A2038091A303C1
:1024A0009091A40342E00E942A0C8EEA92E00E94DE
:1024B000DC0B80EB92E00E94DC0B8EEA92E00E9443
:1024C000DC0B85E40E94860FBC01990F880B990BE9
:1024D0000E94691625E732E04AE95BE30E941E1775
:1024E0006093B5037093B6038093B7039093B803DA
:1024F0002091B1033091B2034091B3035091B403E2
:102500000E944D156B017C012AE037ED43EA5BE345
:102510000E94BA1587FD09C0C092AD03D092AE03E8
:10252000E092AF03F092B00308C01092AD03109296
:10253000AE031092AF031092B00320E030E04AE700
:1025400054E46091AD037091AE038091AF0390911C
:10255000B0030E941E176093A9037093AA0380938F
:10256000AB039093AC039B01AC010E944E152DEC84
:102570003CEC4CE95FE30E94BF150E94E1176093B9
:10258000A5037093A6038093A7039093A80342E04A
:102590000E942A0C8EEA92E00E94DC0B1091CA0580
:1025A0001092CB056091CC057091CD0580E090E054
:1025B0000E9467166B017C016091CE057091CF057A
:1025C0008091D0059091D1050E94671628E23BE6E4
:1025D0004EE65EE40E94BF159B01AC01C701B60147
:1025E0000E944E152091D205211190582BE030E029
:1025F000412F0E946B0F8EEA92E00E94DC0B10913B
:10260000CA051092CB056091D3057091D40580E086
:1026100090E00E9467166B017C016091D505709176
:10262000D6058091D7059091D8050E94671628E2BB
:102630003BE64EE65EE40E94BF159B01AC01C7017C
:10264000B6010E944E152091D905211190582CE019
:1026500030E0412F0E946B0F8EEA92E00E94DC0B6B
:1026600084E40E94860F9093C4038093C303BC014B
:10267000990F880B990B0E94691620E030E44CE911
:1026800050E40E941E176B017C016093BF0370939E
:10269000C0038093C1039093C20320E030E0A901FE
:1026A0000E94BA15811105C082EB92E00E94DC0BFA
:1026B00038C020E030E048EC53E4C701B6010E9486
:1026C000BA1587FF03C00E94FE0C2BC020E030E04B
:1026D00048EC53E4C701B6010E944D150E94311623
:1026E0007093BE036093BD03072E000C880B990BFB
:1026F0000E94691620E030E048E452E40E941E1770
:1027000020E030E040E85DE30E941E176093B903CB
:102710007093BA038093BB039093BC0342E00E9482
:102720002A0C8EEA92E00E94DC0B0E94FE0C8CE2E6
:102730000E94DE0B0E94FE0C8CE20E94DE0B0E94C7
:10274000FE0C88EB92E00E94CA0B8091C60388239E
:1027500051F11092C5038BEB92E00E94040D81E2CF
:1027600095E00E94F002E0913305F09134058081FC
:102770008F7E8083E0913305F09134058081877FDF
:102780008083E0913305F091340580818F778083D9
:10279000E0913305F091340580818F7D80838091B5
:1027A0003B0580933A0564E670E080E090E00E948B
:1027B00030070E944903693873418105910530F162
:1027C0008091670690916806A0916906B0916A06AB
:1027D0000A97A105B105D0F40CE812E0F801649164
:1027E000611105C088EB92E00E94CA0B0FC0E09116
:1027F0002105F09122050190F081E02D81E295E024
:1028000019950F5F1F4F892B49F7ECCF0E941203D8
:10281000BACDE4E8F4E01382128288EE93E0A0E0FF
:10282000B0E084839583A683B78325E032E03183CB
:10283000208345ED50E05587448744ED50E05787AD
:10284000468740ED50E0518B408B41ED50E0538B7B
:10285000428B42ED50E0558B448B46ED50E0578B58
:10286000468B118E128E138E148EE1E2F5E01382E8
:10287000128284839583A683B7833183208325ECDA
:1028800030E03587248724EC30E03787268720EC3A
:1028900030E0318B208B21EC30E0338B228B22EC2B
:1028A00030E0358B248B26EC30E0378B268B118E75
:1028B000128E138E148EEEEBF5E013821282848357
:1028C0009583A683B78385E192E091838083E7E9CE
:1028D000F6E082E090E09183808384E390E093834C
:1028E0008283EAECF5E01082118213821282148254
:1028F0001582168217821086128611861386148618
:10290000158616861786118A108A128A138A148AE7
:10291000158A168A108E178A118E128E138E148EB7
:10292000158E12A213A214A215A216A217A210AA03
:1029300011AA12AA13AA14AA15AA10920806109294
:10294000090610920E0610920F06109210061092B1
:102950001106109216061092170610921C0610927D
:102960001D0610921E0610921F0610922406109249
:10297000250610922A0610922B0610922C06109211
:102980002D061092320610923306109238061092DD
:10299000390610923A0610923B06109240061092A9
:1029A0004106109246061092470610924806109271
:1029B000490610924E0610924F0682E080935F0601
:1029C00010926006109261061092620610926406E0
:1029D00010926306109266061092650610926706C2
:1029E000109268061092690610926A0610926B06A1
:1029F00010926C0610926D0610926E0610926F0681
:102A00001092700610927106109272061092730660
:102A10001092740610927506109276061092500667
:102A200008951F93FC0199278827BC01E894119110
:102A30001032E9F3193010F01E30C8F31B3251F098
:102A40001D3249F4689406C00E943815610F711D4B
:102A5000811D911D119110531A30B0F33EF49095E1
:102A60008095709561957F4F8F4F9F4F1F9108956F
:102A7000592F482F372F262F660F771F881F991F32
:102A8000660F771F881F991F620F731F841F951F82
:102A9000660F771F881F991F08955058BB27AA27D4
:102AA0000E9465150C94DF160E94D11638F00E9422
:102AB000D81620F039F49F3F19F426F40C94CE1662
:102AC0000EF4E095E7FB0C94C816E92F0E94F0166F
:102AD00058F3BA17620773078407950720F079F453
:102AE000A6F50C9412170EF4E0950B2EBA2FA02D1C
:102AF0000B01B90190010C01CA01A0011124FF27AB
:102B0000591B99F0593F50F4503E68F11A16F040A5
:102B1000A22F232F342F4427585FF3CF46953795A4
:102B20002795A795F0405395C9F77EF41F16BA0B69
:102B3000620B730B840BBAF09150A1F0FF0FBB1F17
:102B4000661F771F881FC2F70EC0BA0F621F731F60
:102B5000841F48F4879577956795B795F7959E3FBD
:102B600008F0B0CF9395880F08F09927EE0F97954E
:102B7000879508950E94A41608F481E008950E94A4
:102B8000D3150C94DF160E94D81658F00E94D11667
:102B900040F029F45F3F29F00C94C81651110C94B1
:102BA00013170C94CE160E94F01668F39923B1F314
:102BB000552391F3951B550BBB27AA276217730763
:102BC000840738F09F5F5F4F220F331F441FAA1FF7
:102BD000A9F335D00E2E3AF0E0E832D091505040B3
:102BE000E695001CCAF72BD0FE2F29D0660F771F61
:102BF000881FBB1F261737074807AB07B0E809F047
:102C0000BB0B802DBF01FF2793585F4F3AF09E3FCB
:102C1000510578F00C94C8160C9413175F3FE4F339
:102C2000983ED4F3869577956795B795F7959F5F0E
:102C3000C9F7880F911D9695879597F90895E1E05A
:102C4000660F771F881FBB1F621773078407BA07B9
:102C500020F0621B730B840BBA0BEE1F88F7E09514
:102C600008950E9438166894B1110C9413170895B2
:102C70000E94F81688F09F5798F0B92F9927B751FE
:102C8000B0F0E1F0660F771F881F991F1AF0BA9510
:102C9000C9F714C0B13091F00E941217B1E0089545
:102CA0000C941217672F782F8827B85F39F0B93F37
:102CB000CCF3869577956795B395D9F73EF49095C3
:102CC0008095709561957F4F8F4F9F4F0895E89441
:102CD00009C097FB3EF490958095709561957F4F64
:102CE0008F4F9F4F9923A9F0F92F96E9BB27939512
:102CF000F695879577956795B795F111F8CFFAF422
:102D0000BB0F11F460FF1BC06F5F7F4F8F4F9F4F52
:102D100016C0882311F096E911C0772321F09EE8B0
:102D2000872F762F05C0662371F096E8862F70E016
:102D300060E02AF09A95660F771F881FDAF7880FF0
:102D40009695879597F90895990F0008550FAA0B46
:102D5000E0E8FEEF16161706E807F907C0F01216AE
:102D60001306E407F50798F0621B730B840B950BB1
:102D700039F40A2661F0232B242B252B21F4089506
:102D80000A2609F4A140A6958FEF811D811D0895A3
:102D900097F99F6780E870E060E008959FEF80EC0E
:102DA000089500240A9416161706180609060895B1
:102DB00000240A9412161306140605060895092E17
:102DC0000394000C11F4882352F0BB0F40F4BF2B86
:102DD00011F460FF04C06F5F7F4F8F4F9F4F0895C6
:102DE00057FD9058440F551F59F05F3F71F04795BC
:102DF000880F97FB991F61F09F3F79F087950895A1
:102E0000121613061406551FF2CF4695F1DF08C0BF
:102E1000161617061806991FF1CF869571056105DC
:102E200008940895E894BB2766277727CB0197F984
:102E300008950E94A41608F48FEF08950E94311798
:102E40000C94DF160E94D11638F00E94D81620F09C
:102E5000952311F00C94C8160C94CE1611240C94E2
:102E600013170E94F01670F3959FC1F3950F50E071
:102E7000551F629FF001729FBB27F00DB11D639F2C
:102E8000AA27F00DB11DAA1F649F6627B00DA11DD2
:102E9000661F829F2227B00DA11D621F739FB00D78
:102EA000A11D621F839FA00D611D221F749F3327E8
:102EB000A00D611D231F849F600D211D822F762F81
:102EC0006A2F11249F5750409AF0F1F088234AF05E
:102ED000EE0FFF1FBB1F661F771F881F91505040CA
:102EE000A9F79E3F510580F00C94C8160C94131757
:102EF0005F3FE4F3983ED4F3869577956795B79551
:102F0000F795E7959F5FC1F7FE2B880F911D96956A
:102F1000879597F90895FA01EE0FFF1F3096210566
:102F20003105A1F16115710561F48038BFE39B079C
:102F300049F168949038810561F08038BFEF9B07B4
:102F400041F099234AF5FF3FE1053105210519F1CB
:102F5000E8940894E795D901AA2329F4AB2FBE2F52
:102F6000F85FD0F310C0FF5F70F4A695E0F7F73973
:102F700050F019F0FF3A38F49F779F930DD00F90DF
:102F800007FC9058089546F00C94CE1660E070E06F
:102F900080E89FE308954FE79F775F934F933F93B8
:102FA0002F930E94E6182F913F914F915F910E94BD
:102FB0001E170C942E1819F416F40C94CE160C94BB
:102FC00060180E94F816B8F39923C9F3B6F39F5717
:102FD000550B87FF0E946E180024A0E640EA90017E
:102FE00080585695979528F4805C660F771F881F48
:102FF00020F026173707480730F4621B730B840B49
:10300000202931294A2BA69517940794202531258C
:103010004A2758F7660F771F881F20F026173707B3
:10302000480730F4620B730B840B200D311D411DDA
:10303000A09581F7B901842F9158880F96958795AF
:1030400008950E94A416880B990B089529F416F090
:103050000C94C8160C9412170C94CE160E94F816F5
:10306000A8F39638A0F707F80F92E8942BE33AEA12
:1030700048EB5FE70E9434170F920F920F924DB703
:103080005EB70F920E942E19EAE5F1E00E947518D2
:103090004F915F91EF91FF91E595EE1FFF1F49F072
:1030A000FE57E0684427EE0F441FFA95E1F741957B
:1030B000550B0E94A8180F9007FE0C949C180895B9
:1030C0009F3F31F0915020F4879577956795B7959C
:1030D000880F911D9695879597F9089591505040C6
:1030E000660F771F881FD2F70895DF93CF931F9342
:1030F0000F93FF92EF92DF927B018C01689406C0E0
:10310000DA2EEF010E943117FE01E894A591259176
:10311000359145915591A6F3EF010E946515FE0189
:103120009701A801DA9469F7DF90EF90FF900F9173
:103130001F91CF91DF9108959B01AC0160E070E099
:1031400080E89FE30C94BF150C94C8160C9460188B
:103150000E94F816D8F39923C9F3940F511DA3F3D5
:103160009150504094F059F0882332F0660F771F49
:10317000881F91505040C1F79E3F51052CF7880F92
:10318000911D9695879597F908955F3FACF0983E0D
:103190009CF0BB27869577956795B79508F4B16045
:1031A0009395C1F7BB0F58F711F460FFE8CF6F5F3D
:1031B0007F4F8F4F9F4FE3CF0C94131716F00C9453
:1031C00060180C94CE1668940C94C8160E94F816D9
:1031D000A8F39923C1F3AEF3DF93CF931F930F931B
:1031E000FF92C92FDD2788232AF02197660F771FCA
:1031F000881FDAF720E030E040E85FEB9FE3883992
:1032000020F0803E38F021968F770E944E15E2E83C
:10321000F1E004C00E944E15EFEAF1E00E9475183B
:103220008B01BE01EC01FB2E6F5771097595771F5D
:10323000880B990B0E94691628E132E741E35FE3AE
:103240000E943117AF2D9801AE01FF900F911F9191
:10325000CF91DF910E9465150C94DF16FA01DC0115
:10326000AA0FBB1F9B01AC01BF5728F422273327AD
:103270004427507820C0B75190F4AB2F00244695D6
:1032800037952795011CA395D2F3002071F0220FEA
:10329000331F441FB395DAF30ED00C944D156130F3
:1032A0007105A0E88A07B94630F49B01AC01662796
:1032B000772788279078309621F0208331834283C6
:1032C00053830895DB018F939F930E949C19BF91B4
:1032D000AF91A29F800D911DA39F900DB29F900D65
:1032E00011240895A1E21A2EAA1BBB1BFD010DC0DB
:1032F000AA1FBB1FEE1FFF1FA217B307E407F507A6
:1033000020F0A21BB30BE40BF50B661F771F881F81
:10331000991F1A9469F760957095809590959B0117
:10332000AC01BD01CF010895EE0FFF1F881F8BBFB9
:103330000790F691E02D19940E94AF19A59F900D6A
:10334000B49F900DA49F800D911D11240895B7FF87
:103350000C949C190E949C19821B930B0895A29FA8
:10336000B001B39FC001A39F700D811D1124911D59
:10337000B29F700D811D1124911D089581E090E090
:10338000F8940C94E219FB01DC018D9101908019F5
:103390000110D9F3990B0895FB01DC0101900D9206
:1033A0000020E1F70895FB01DC014150504048F056
:1033B00001900D920020C9F701C01D92415050406C
:0833C000E0F70895F894FFCF37
:1033C8000100000000A9020202680246025A02F047
:1033D8000200000000D504A5049D0489047A04793C
:1033E80004496E697469616C697A65204D53353694
:1033F80031312053656E736F72004D53353631315C
:1034080020696E69742073756363657373002D2D6D
:10341800204B415355415249205265616479202D12
:103428002D002074797065203120746F20737461C9
:1034380072742E2E2E002074797065203020746FDF
:103448002073746F702E2E2E004D53353631312077
:10345800696E6974206661696C2028646973636F9A
:103468006E6E65637465643F290A0A004F4B2C0031
:1034780030004661756C74000D0A002D2D204B41FB
:1034880053554152492053746F70706564202D2D37
:10349800004750524D4300474E524D430047504756
:1034A800474100474E474741006572726F7220726C
:1034B800657472696576696E672070726573737575
:1034C8007265206D6561737572656D656E740A004D
:1034D8006572726F72207374617274696E6720709E
:1034E80072657373757265206D6561737572656D4C
:1034F800656E740A006572726F7220726574726903
:103508006576696E672074656D7065726174757231
:1035180065206D6561737572656D656E740A006509
:1035280072726F72207374617274696E6720746549
:103538006D7065726174757265206D656173757201
:10354800656D656E740A006E616E00696E66006F67
:043558007666000093
:00000001FF
